{
  "_format": "hh-sol-artifact-1",
  "contractName": "FrogNFT",
  "sourceName": "contracts/FrogNFT.sol",
  "abi": [
    {
      "inputs": [],
      "stateMutability": "nonpayable",
      "type": "constructor"
    },
    {
      "inputs": [
        {
          "internalType": "address",
          "name": "sender",
          "type": "address"
        },
        {
          "internalType": "uint256",
          "name": "tokenId",
          "type": "uint256"
        },
        {
          "internalType": "address",
          "name": "owner",
          "type": "address"
        }
      ],
      "name": "ERC721IncorrectOwner",
      "type": "error"
    },
    {
      "inputs": [
        {
          "internalType": "address",
          "name": "operator",
          "type": "address"
        },
        {
          "internalType": "uint256",
          "name": "tokenId",
          "type": "uint256"
        }
      ],
      "name": "ERC721InsufficientApproval",
      "type": "error"
    },
    {
      "inputs": [
        {
          "internalType": "address",
          "name": "approver",
          "type": "address"
        }
      ],
      "name": "ERC721InvalidApprover",
      "type": "error"
    },
    {
      "inputs": [
        {
          "internalType": "address",
          "name": "operator",
          "type": "address"
        }
      ],
      "name": "ERC721InvalidOperator",
      "type": "error"
    },
    {
      "inputs": [
        {
          "internalType": "address",
          "name": "owner",
          "type": "address"
        }
      ],
      "name": "ERC721InvalidOwner",
      "type": "error"
    },
    {
      "inputs": [
        {
          "internalType": "address",
          "name": "receiver",
          "type": "address"
        }
      ],
      "name": "ERC721InvalidReceiver",
      "type": "error"
    },
    {
      "inputs": [
        {
          "internalType": "address",
          "name": "sender",
          "type": "address"
        }
      ],
      "name": "ERC721InvalidSender",
      "type": "error"
    },
    {
      "inputs": [
        {
          "internalType": "uint256",
          "name": "tokenId",
          "type": "uint256"
        }
      ],
      "name": "ERC721NonexistentToken",
      "type": "error"
    },
    {
      "anonymous": false,
      "inputs": [
        {
          "indexed": true,
          "internalType": "address",
          "name": "owner",
          "type": "address"
        },
        {
          "indexed": true,
          "internalType": "address",
          "name": "approved",
          "type": "address"
        },
        {
          "indexed": true,
          "internalType": "uint256",
          "name": "tokenId",
          "type": "uint256"
        }
      ],
      "name": "Approval",
      "type": "event"
    },
    {
      "anonymous": false,
      "inputs": [
        {
          "indexed": true,
          "internalType": "address",
          "name": "owner",
          "type": "address"
        },
        {
          "indexed": true,
          "internalType": "address",
          "name": "operator",
          "type": "address"
        },
        {
          "indexed": false,
          "internalType": "bool",
          "name": "approved",
          "type": "bool"
        }
      ],
      "name": "ApprovalForAll",
      "type": "event"
    },
    {
      "anonymous": false,
      "inputs": [
        {
          "indexed": false,
          "internalType": "uint256",
          "name": "_fromTokenId",
          "type": "uint256"
        },
        {
          "indexed": false,
          "internalType": "uint256",
          "name": "_toTokenId",
          "type": "uint256"
        }
      ],
      "name": "BatchMetadataUpdate",
      "type": "event"
    },
    {
      "anonymous": false,
      "inputs": [
        {
          "indexed": false,
          "internalType": "uint256",
          "name": "_tokenId",
          "type": "uint256"
        }
      ],
      "name": "MetadataUpdate",
      "type": "event"
    },
    {
      "anonymous": false,
      "inputs": [
        {
          "indexed": true,
          "internalType": "address",
          "name": "from",
          "type": "address"
        },
        {
          "indexed": true,
          "internalType": "address",
          "name": "to",
          "type": "address"
        },
        {
          "indexed": true,
          "internalType": "uint256",
          "name": "tokenId",
          "type": "uint256"
        }
      ],
      "name": "Transfer",
      "type": "event"
    },
    {
      "inputs": [
        {
          "internalType": "address",
          "name": "to",
          "type": "address"
        },
        {
          "internalType": "uint256",
          "name": "tokenId",
          "type": "uint256"
        }
      ],
      "name": "approve",
      "outputs": [],
      "stateMutability": "nonpayable",
      "type": "function"
    },
    {
      "inputs": [
        {
          "internalType": "address",
          "name": "owner",
          "type": "address"
        }
      ],
      "name": "balanceOf",
      "outputs": [
        {
          "internalType": "uint256",
          "name": "",
          "type": "uint256"
        }
      ],
      "stateMutability": "view",
      "type": "function"
    },
    {
      "inputs": [
        {
          "internalType": "uint256",
          "name": "tokenId",
          "type": "uint256"
        }
      ],
      "name": "burn",
      "outputs": [],
      "stateMutability": "nonpayable",
      "type": "function"
    },
    {
      "inputs": [],
      "name": "counter",
      "outputs": [
        {
          "internalType": "uint256",
          "name": "",
          "type": "uint256"
        }
      ],
      "stateMutability": "view",
      "type": "function"
    },
    {
      "inputs": [
        {
          "internalType": "string",
          "name": "tokenURI",
          "type": "string"
        }
      ],
      "name": "createNFTs",
      "outputs": [
        {
          "internalType": "uint256",
          "name": "",
          "type": "uint256"
        }
      ],
      "stateMutability": "nonpayable",
      "type": "function"
    },
    {
      "inputs": [
        {
          "internalType": "uint256",
          "name": "tokenId",
          "type": "uint256"
        }
      ],
      "name": "getApproved",
      "outputs": [
        {
          "internalType": "address",
          "name": "",
          "type": "address"
        }
      ],
      "stateMutability": "view",
      "type": "function"
    },
    {
      "inputs": [
        {
          "internalType": "address",
          "name": "owner",
          "type": "address"
        },
        {
          "internalType": "address",
          "name": "operator",
          "type": "address"
        }
      ],
      "name": "isApprovedForAll",
      "outputs": [
        {
          "internalType": "bool",
          "name": "",
          "type": "bool"
        }
      ],
      "stateMutability": "view",
      "type": "function"
    },
    {
      "inputs": [],
      "name": "name",
      "outputs": [
        {
          "internalType": "string",
          "name": "",
          "type": "string"
        }
      ],
      "stateMutability": "view",
      "type": "function"
    },
    {
      "inputs": [
        {
          "internalType": "uint256",
          "name": "tokenId",
          "type": "uint256"
        }
      ],
      "name": "ownerOf",
      "outputs": [
        {
          "internalType": "address",
          "name": "",
          "type": "address"
        }
      ],
      "stateMutability": "view",
      "type": "function"
    },
    {
      "inputs": [
        {
          "internalType": "address",
          "name": "from",
          "type": "address"
        },
        {
          "internalType": "address",
          "name": "to",
          "type": "address"
        },
        {
          "internalType": "uint256",
          "name": "tokenId",
          "type": "uint256"
        }
      ],
      "name": "safeTransferFrom",
      "outputs": [],
      "stateMutability": "nonpayable",
      "type": "function"
    },
    {
      "inputs": [
        {
          "internalType": "address",
          "name": "from",
          "type": "address"
        },
        {
          "internalType": "address",
          "name": "to",
          "type": "address"
        },
        {
          "internalType": "uint256",
          "name": "tokenId",
          "type": "uint256"
        },
        {
          "internalType": "bytes",
          "name": "data",
          "type": "bytes"
        }
      ],
      "name": "safeTransferFrom",
      "outputs": [],
      "stateMutability": "nonpayable",
      "type": "function"
    },
    {
      "inputs": [
        {
          "internalType": "address",
          "name": "operator",
          "type": "address"
        },
        {
          "internalType": "bool",
          "name": "approved",
          "type": "bool"
        }
      ],
      "name": "setApprovalForAll",
      "outputs": [],
      "stateMutability": "nonpayable",
      "type": "function"
    },
    {
      "inputs": [
        {
          "internalType": "bytes4",
          "name": "interfaceId",
          "type": "bytes4"
        }
      ],
      "name": "supportsInterface",
      "outputs": [
        {
          "internalType": "bool",
          "name": "",
          "type": "bool"
        }
      ],
      "stateMutability": "view",
      "type": "function"
    },
    {
      "inputs": [],
      "name": "symbol",
      "outputs": [
        {
          "internalType": "string",
          "name": "",
          "type": "string"
        }
      ],
      "stateMutability": "view",
      "type": "function"
    },
    {
      "inputs": [
        {
          "internalType": "uint256",
          "name": "tokenId",
          "type": "uint256"
        }
      ],
      "name": "tokenURI",
      "outputs": [
        {
          "internalType": "string",
          "name": "",
          "type": "string"
        }
      ],
      "stateMutability": "view",
      "type": "function"
    },
    {
      "inputs": [
        {
          "internalType": "address",
          "name": "from",
          "type": "address"
        },
        {
          "internalType": "address",
          "name": "to",
          "type": "address"
        },
        {
          "internalType": "uint256",
          "name": "tokenId",
          "type": "uint256"
        }
      ],
      "name": "transferFrom",
      "outputs": [],
      "stateMutability": "nonpayable",
      "type": "function"
    }
  ],
  "bytecode": "0x60806040523480156200001157600080fd5b506040518060400160405280600781526020017f66726f674e4654000000000000000000000000000000000000000000000000008152506040518060400160405280600781526020017f46524f474e46540000000000000000000000000000000000000000000000000081525081600090816200008f91906200032c565b508060019081620000a191906200032c565b505050600060078190555062000413565b600081519050919050565b7f4e487b7100000000000000000000000000000000000000000000000000000000600052604160045260246000fd5b7f4e487b7100000000000000000000000000000000000000000000000000000000600052602260045260246000fd5b600060028204905060018216806200013457607f821691505b6020821081036200014a5762000149620000ec565b5b50919050565b60008190508160005260206000209050919050565b60006020601f8301049050919050565b600082821b905092915050565b600060088302620001b47fffffffffffffffffffffffffffffffffffffffffffffffffffffffffffffffff8262000175565b620001c0868362000175565b95508019841693508086168417925050509392505050565b6000819050919050565b6000819050919050565b60006200020d620002076200020184620001d8565b620001e2565b620001d8565b9050919050565b6000819050919050565b6200022983620001ec565b62000241620002388262000214565b84845462000182565b825550505050565b600090565b6200025862000249565b620002658184846200021e565b505050565b5b818110156200028d57620002816000826200024e565b6001810190506200026b565b5050565b601f821115620002dc57620002a68162000150565b620002b18462000165565b81016020851015620002c1578190505b620002d9620002d08562000165565b8301826200026a565b50505b505050565b600082821c905092915050565b60006200030160001984600802620002e1565b1980831691505092915050565b60006200031c8383620002ee565b9150826002028217905092915050565b6200033782620000b2565b67ffffffffffffffff811115620003535762000352620000bd565b5b6200035f82546200011b565b6200036c82828562000291565b600060209050601f831160018114620003a457600084156200038f578287015190505b6200039b85826200030e565b8655506200040b565b601f198416620003b48662000150565b60005b82811015620003de57848901518255600182019150602085019450602081019050620003b7565b86831015620003fe5784890151620003fa601f891682620002ee565b8355505b6001600288020188555050505b505050505050565b6125b280620004236000396000f3fe608060405234801561001057600080fd5b50600436106101005760003560e01c80636352211e11610097578063a22cb46511610066578063a22cb465146102bf578063b88d4fde146102db578063c87b56dd146102f7578063e985e9c51461032757610100565b80636352211e1461021157806370a08231146102415780637c4bcc141461027157806395d89b41146102a157610100565b806323b872dd116100d357806323b872dd1461019f57806342842e0e146101bb57806342966c68146101d757806361bc221a146101f357610100565b806301ffc9a71461010557806306fdde0314610135578063081812fc14610153578063095ea7b314610183575b600080fd5b61011f600480360381019061011a919061198b565b610357565b60405161012c91906119d3565b60405180910390f35b61013d6103b8565b60405161014a9190611a7e565b60405180910390f35b61016d60048036038101906101689190611ad6565b61044a565b60405161017a9190611b44565b60405180910390f35b61019d60048036038101906101989190611b8b565b610466565b005b6101b960048036038101906101b49190611bcb565b61047c565b005b6101d560048036038101906101d09190611bcb565b61057e565b005b6101f160048036038101906101ec9190611ad6565b61059e565b005b6101fb6105fc565b6040516102089190611c2d565b60405180910390f35b61022b60048036038101906102269190611ad6565b610602565b6040516102389190611b44565b60405180910390f35b61025b60048036038101906102569190611c48565b610614565b6040516102689190611c2d565b60405180910390f35b61028b60048036038101906102869190611daa565b6106ce565b6040516102989190611c2d565b60405180910390f35b6102a961070b565b6040516102b69190611a7e565b60405180910390f35b6102d960048036038101906102d49190611e1f565b61079d565b005b6102f560048036038101906102f09190611f00565b6107b3565b005b610311600480360381019061030c9190611ad6565b6107d0565b60405161031e9190611a7e565b60405180910390f35b610341600480360381019061033c9190611f83565b6108e3565b60405161034e91906119d3565b60405180910390f35b6000634906490660e01b7bffffffffffffffffffffffffffffffffffffffffffffffffffffffff1916827bffffffffffffffffffffffffffffffffffffffffffffffffffffffff191614806103b157506103b082610977565b5b9050919050565b6060600080546103c790611ff2565b80601f01602080910402602001604051908101604052809291908181526020018280546103f390611ff2565b80156104405780601f1061041557610100808354040283529160200191610440565b820191906000526020600020905b81548152906001019060200180831161042357829003601f168201915b5050505050905090565b600061045582610a59565b5061045f82610ae1565b9050919050565b6104788282610473610b1e565b610b26565b5050565b600073ffffffffffffffffffffffffffffffffffffffff168273ffffffffffffffffffffffffffffffffffffffff16036104ee5760006040517f64a0ae920000000000000000000000000000000000000000000000000000000081526004016104e59190611b44565b60405180910390fd5b600061050283836104fd610b1e565b610b38565b90508373ffffffffffffffffffffffffffffffffffffffff168173ffffffffffffffffffffffffffffffffffffffff1614610578578382826040517f64283d7b00000000000000000000000000000000000000000000000000000000815260040161056f93929190612023565b60405180910390fd5b50505050565b610599838383604051806020016040528060008152506107b3565b505050565b6105b16105aa82610d52565b3383610d8f565b6105f0576040517f08c379a00000000000000000000000000000000000000000000000000000000081526004016105e7906120cc565b60405180910390fd5b6105f981610e50565b50565b60075481565b600061060d82610a59565b9050919050565b60008073ffffffffffffffffffffffffffffffffffffffff168273ffffffffffffffffffffffffffffffffffffffff16036106875760006040517f89c62b6400000000000000000000000000000000000000000000000000000000815260040161067e9190611b44565b60405180910390fd5b600360008373ffffffffffffffffffffffffffffffffffffffff1673ffffffffffffffffffffffffffffffffffffffff168152602001908152602001600020549050919050565b60008060075490506106e03382610ed6565b6106ea8184610ef4565b600760008154809291906106fd9061211b565b919050555080915050919050565b60606001805461071a90611ff2565b80601f016020809104026020016040519081016040528092919081815260200182805461074690611ff2565b80156107935780601f1061076857610100808354040283529160200191610793565b820191906000526020600020905b81548152906001019060200180831161077657829003601f168201915b5050505050905090565b6107af6107a8610b1e565b8383610f50565b5050565b6107be84848461047c565b6107ca848484846110bf565b50505050565b60606107db82610a59565b5060006006600084815260200190815260200160002080546107fc90611ff2565b80601f016020809104026020016040519081016040528092919081815260200182805461082890611ff2565b80156108755780601f1061084a57610100808354040283529160200191610875565b820191906000526020600020905b81548152906001019060200180831161085857829003601f168201915b505050505090506000610886611276565b9050600081510361089b5781925050506108de565b6000825111156108d05780826040516020016108b892919061219f565b604051602081830303815290604052925050506108de565b6108d98461128d565b925050505b919050565b6000600560008473ffffffffffffffffffffffffffffffffffffffff1673ffffffffffffffffffffffffffffffffffffffff16815260200190815260200160002060008373ffffffffffffffffffffffffffffffffffffffff1673ffffffffffffffffffffffffffffffffffffffff16815260200190815260200160002060009054906101000a900460ff16905092915050565b60007f80ac58cd000000000000000000000000000000000000000000000000000000007bffffffffffffffffffffffffffffffffffffffffffffffffffffffff1916827bffffffffffffffffffffffffffffffffffffffffffffffffffffffff19161480610a4257507f5b5e139f000000000000000000000000000000000000000000000000000000007bffffffffffffffffffffffffffffffffffffffffffffffffffffffff1916827bffffffffffffffffffffffffffffffffffffffffffffffffffffffff1916145b80610a525750610a51826112f6565b5b9050919050565b600080610a6583610d52565b9050600073ffffffffffffffffffffffffffffffffffffffff168173ffffffffffffffffffffffffffffffffffffffff1603610ad857826040517f7e273289000000000000000000000000000000000000000000000000000000008152600401610acf9190611c2d565b60405180910390fd5b80915050919050565b60006004600083815260200190815260200160002060009054906101000a900473ffffffffffffffffffffffffffffffffffffffff169050919050565b600033905090565b610b338383836001611360565b505050565b600080610b4484610d52565b9050600073ffffffffffffffffffffffffffffffffffffffff168373ffffffffffffffffffffffffffffffffffffffff1614610b8657610b85818486611525565b5b600073ffffffffffffffffffffffffffffffffffffffff168173ffffffffffffffffffffffffffffffffffffffff1614610c1757610bc8600085600080611360565b6001600360008373ffffffffffffffffffffffffffffffffffffffff1673ffffffffffffffffffffffffffffffffffffffff168152602001908152602001600020600082825403925050819055505b600073ffffffffffffffffffffffffffffffffffffffff168573ffffffffffffffffffffffffffffffffffffffff1614610c9a576001600360008773ffffffffffffffffffffffffffffffffffffffff1673ffffffffffffffffffffffffffffffffffffffff168152602001908152602001600020600082825401925050819055505b846002600086815260200190815260200160002060006101000a81548173ffffffffffffffffffffffffffffffffffffffff021916908373ffffffffffffffffffffffffffffffffffffffff160217905550838573ffffffffffffffffffffffffffffffffffffffff168273ffffffffffffffffffffffffffffffffffffffff167fddf252ad1be2c89b69c2b068fc378daa952ba7f163c4a11628f55a4df523b3ef60405160405180910390a4809150509392505050565b60006002600083815260200190815260200160002060009054906101000a900473ffffffffffffffffffffffffffffffffffffffff169050919050565b60008073ffffffffffffffffffffffffffffffffffffffff168373ffffffffffffffffffffffffffffffffffffffff1614158015610e4757508273ffffffffffffffffffffffffffffffffffffffff168473ffffffffffffffffffffffffffffffffffffffff161480610e085750610e0784846108e3565b5b80610e4657508273ffffffffffffffffffffffffffffffffffffffff16610e2e83610ae1565b73ffffffffffffffffffffffffffffffffffffffff16145b5b90509392505050565b6000610e5f6000836000610b38565b9050600073ffffffffffffffffffffffffffffffffffffffff168173ffffffffffffffffffffffffffffffffffffffff1603610ed257816040517f7e273289000000000000000000000000000000000000000000000000000000008152600401610ec99190611c2d565b60405180910390fd5b5050565b610ef08282604051806020016040528060008152506115e9565b5050565b80600660008481526020019081526020016000209081610f14919061236f565b507ff8e1a15aba9398e019f0b49df1a4fde98ee17ae345cb5f6b5e2c27f5033e8ce782604051610f449190611c2d565b60405180910390a15050565b600073ffffffffffffffffffffffffffffffffffffffff168273ffffffffffffffffffffffffffffffffffffffff1603610fc157816040517f5b08ba18000000000000000000000000000000000000000000000000000000008152600401610fb89190611b44565b60405180910390fd5b80600560008573ffffffffffffffffffffffffffffffffffffffff1673ffffffffffffffffffffffffffffffffffffffff16815260200190815260200160002060008473ffffffffffffffffffffffffffffffffffffffff1673ffffffffffffffffffffffffffffffffffffffff16815260200190815260200160002060006101000a81548160ff0219169083151502179055508173ffffffffffffffffffffffffffffffffffffffff168373ffffffffffffffffffffffffffffffffffffffff167f17307eab39ab6107e8899845ad3d59bd9653f200f220920489ca2b5937696c31836040516110b291906119d3565b60405180910390a3505050565b60008373ffffffffffffffffffffffffffffffffffffffff163b1115611270578273ffffffffffffffffffffffffffffffffffffffff1663150b7a02611103610b1e565b8685856040518563ffffffff1660e01b81526004016111259493929190612496565b6020604051808303816000875af192505050801561116157506040513d601f19601f8201168201806040525081019061115e91906124f7565b60015b6111e5573d8060008114611191576040519150601f19603f3d011682016040523d82523d6000602084013e611196565b606091505b5060008151036111dd57836040517f64a0ae920000000000000000000000000000000000000000000000000000000081526004016111d49190611b44565b60405180910390fd5b805181602001fd5b63150b7a0260e01b7bffffffffffffffffffffffffffffffffffffffffffffffffffffffff1916817bffffffffffffffffffffffffffffffffffffffffffffffffffffffff19161461126e57836040517f64a0ae920000000000000000000000000000000000000000000000000000000081526004016112659190611b44565b60405180910390fd5b505b50505050565b606060405180602001604052806000815250905090565b606061129882610a59565b5060006112a3611276565b905060008151116112c357604051806020016040528060008152506112ee565b806112cd84611605565b6040516020016112de92919061219f565b6040516020818303038152906040525b915050919050565b60007f01ffc9a7000000000000000000000000000000000000000000000000000000007bffffffffffffffffffffffffffffffffffffffffffffffffffffffff1916827bffffffffffffffffffffffffffffffffffffffffffffffffffffffff1916149050919050565b80806113995750600073ffffffffffffffffffffffffffffffffffffffff168273ffffffffffffffffffffffffffffffffffffffff1614155b156114cd5760006113a984610a59565b9050600073ffffffffffffffffffffffffffffffffffffffff168373ffffffffffffffffffffffffffffffffffffffff161415801561141457508273ffffffffffffffffffffffffffffffffffffffff168173ffffffffffffffffffffffffffffffffffffffff1614155b8015611427575061142581846108e3565b155b1561146957826040517fa9fbf51f0000000000000000000000000000000000000000000000000000000081526004016114609190611b44565b60405180910390fd5b81156114cb57838573ffffffffffffffffffffffffffffffffffffffff168273ffffffffffffffffffffffffffffffffffffffff167f8c5be1e5ebec7d5bd14f71427d1e84f3dd0314c0f7b2291e5b200ac8c7c3b92560405160405180910390a45b505b836004600085815260200190815260200160002060006101000a81548173ffffffffffffffffffffffffffffffffffffffff021916908373ffffffffffffffffffffffffffffffffffffffff16021790555050505050565b611530838383610d8f565b6115e457600073ffffffffffffffffffffffffffffffffffffffff168373ffffffffffffffffffffffffffffffffffffffff16036115a557806040517f7e27328900000000000000000000000000000000000000000000000000000000815260040161159c9190611c2d565b60405180910390fd5b81816040517f177e802f0000000000000000000000000000000000000000000000000000000081526004016115db929190612524565b60405180910390fd5b505050565b6115f383836116d3565b61160060008484846110bf565b505050565b606060006001611614846117cc565b01905060008167ffffffffffffffff81111561163357611632611c7f565b5b6040519080825280601f01601f1916602001820160405280156116655781602001600182028036833780820191505090505b509050600082602001820190505b6001156116c8578080600190039150507f3031323334353637383961626364656600000000000000000000000000000000600a86061a8153600a85816116bc576116bb61254d565b5b04945060008503611673575b819350505050919050565b600073ffffffffffffffffffffffffffffffffffffffff168273ffffffffffffffffffffffffffffffffffffffff16036117455760006040517f64a0ae9200000000000000000000000000000000000000000000000000000000815260040161173c9190611b44565b60405180910390fd5b600061175383836000610b38565b9050600073ffffffffffffffffffffffffffffffffffffffff168173ffffffffffffffffffffffffffffffffffffffff16146117c75760006040517f73c6ac6e0000000000000000000000000000000000000000000000000000000081526004016117be9190611b44565b60405180910390fd5b505050565b600080600090507a184f03e93ff9f4daa797ed6e38ed64bf6a1f010000000000000000831061182a577a184f03e93ff9f4daa797ed6e38ed64bf6a1f01000000000000000083816118205761181f61254d565b5b0492506040810190505b6d04ee2d6d415b85acef81000000008310611867576d04ee2d6d415b85acef8100000000838161185d5761185c61254d565b5b0492506020810190505b662386f26fc10000831061189657662386f26fc10000838161188c5761188b61254d565b5b0492506010810190505b6305f5e10083106118bf576305f5e10083816118b5576118b461254d565b5b0492506008810190505b61271083106118e45761271083816118da576118d961254d565b5b0492506004810190505b6064831061190757606483816118fd576118fc61254d565b5b0492506002810190505b600a8310611916576001810190505b80915050919050565b6000604051905090565b600080fd5b600080fd5b60007fffffffff0000000000000000000000000000000000000000000000000000000082169050919050565b61196881611933565b811461197357600080fd5b50565b6000813590506119858161195f565b92915050565b6000602082840312156119a1576119a0611929565b5b60006119af84828501611976565b91505092915050565b60008115159050919050565b6119cd816119b8565b82525050565b60006020820190506119e860008301846119c4565b92915050565b600081519050919050565b600082825260208201905092915050565b60005b83811015611a28578082015181840152602081019050611a0d565b60008484015250505050565b6000601f19601f8301169050919050565b6000611a50826119ee565b611a5a81856119f9565b9350611a6a818560208601611a0a565b611a7381611a34565b840191505092915050565b60006020820190508181036000830152611a988184611a45565b905092915050565b6000819050919050565b611ab381611aa0565b8114611abe57600080fd5b50565b600081359050611ad081611aaa565b92915050565b600060208284031215611aec57611aeb611929565b5b6000611afa84828501611ac1565b91505092915050565b600073ffffffffffffffffffffffffffffffffffffffff82169050919050565b6000611b2e82611b03565b9050919050565b611b3e81611b23565b82525050565b6000602082019050611b596000830184611b35565b92915050565b611b6881611b23565b8114611b7357600080fd5b50565b600081359050611b8581611b5f565b92915050565b60008060408385031215611ba257611ba1611929565b5b6000611bb085828601611b76565b9250506020611bc185828601611ac1565b9150509250929050565b600080600060608486031215611be457611be3611929565b5b6000611bf286828701611b76565b9350506020611c0386828701611b76565b9250506040611c1486828701611ac1565b9150509250925092565b611c2781611aa0565b82525050565b6000602082019050611c426000830184611c1e565b92915050565b600060208284031215611c5e57611c5d611929565b5b6000611c6c84828501611b76565b91505092915050565b600080fd5b600080fd5b7f4e487b7100000000000000000000000000000000000000000000000000000000600052604160045260246000fd5b611cb782611a34565b810181811067ffffffffffffffff82111715611cd657611cd5611c7f565b5b80604052505050565b6000611ce961191f565b9050611cf58282611cae565b919050565b600067ffffffffffffffff821115611d1557611d14611c7f565b5b611d1e82611a34565b9050602081019050919050565b82818337600083830152505050565b6000611d4d611d4884611cfa565b611cdf565b905082815260208101848484011115611d6957611d68611c7a565b5b611d74848285611d2b565b509392505050565b600082601f830112611d9157611d90611c75565b5b8135611da1848260208601611d3a565b91505092915050565b600060208284031215611dc057611dbf611929565b5b600082013567ffffffffffffffff811115611dde57611ddd61192e565b5b611dea84828501611d7c565b91505092915050565b611dfc816119b8565b8114611e0757600080fd5b50565b600081359050611e1981611df3565b92915050565b60008060408385031215611e3657611e35611929565b5b6000611e4485828601611b76565b9250506020611e5585828601611e0a565b9150509250929050565b600067ffffffffffffffff821115611e7a57611e79611c7f565b5b611e8382611a34565b9050602081019050919050565b6000611ea3611e9e84611e5f565b611cdf565b905082815260208101848484011115611ebf57611ebe611c7a565b5b611eca848285611d2b565b509392505050565b600082601f830112611ee757611ee6611c75565b5b8135611ef7848260208601611e90565b91505092915050565b60008060008060808587031215611f1a57611f19611929565b5b6000611f2887828801611b76565b9450506020611f3987828801611b76565b9350506040611f4a87828801611ac1565b925050606085013567ffffffffffffffff811115611f6b57611f6a61192e565b5b611f7787828801611ed2565b91505092959194509250565b60008060408385031215611f9a57611f99611929565b5b6000611fa885828601611b76565b9250506020611fb985828601611b76565b9150509250929050565b7f4e487b7100000000000000000000000000000000000000000000000000000000600052602260045260246000fd5b6000600282049050600182168061200a57607f821691505b60208210810361201d5761201c611fc3565b5b50919050565b60006060820190506120386000830186611b35565b6120456020830185611c1e565b6120526040830184611b35565b949350505050565b7f796f7520617265206e6f7420746865206f776e6572206f72206265206170707260008201527f6f76656400000000000000000000000000000000000000000000000000000000602082015250565b60006120b66024836119f9565b91506120c18261205a565b604082019050919050565b600060208201905081810360008301526120e5816120a9565b9050919050565b7f4e487b7100000000000000000000000000000000000000000000000000000000600052601160045260246000fd5b600061212682611aa0565b91507fffffffffffffffffffffffffffffffffffffffffffffffffffffffffffffffff8203612158576121576120ec565b5b600182019050919050565b600081905092915050565b6000612179826119ee565b6121838185612163565b9350612193818560208601611a0a565b80840191505092915050565b60006121ab828561216e565b91506121b7828461216e565b91508190509392505050565b60008190508160005260206000209050919050565b60006020601f8301049050919050565b600082821b905092915050565b6000600883026122257fffffffffffffffffffffffffffffffffffffffffffffffffffffffffffffffff826121e8565b61222f86836121e8565b95508019841693508086168417925050509392505050565b6000819050919050565b600061226c61226761226284611aa0565b612247565b611aa0565b9050919050565b6000819050919050565b61228683612251565b61229a61229282612273565b8484546121f5565b825550505050565b600090565b6122af6122a2565b6122ba81848461227d565b505050565b5b818110156122de576122d36000826122a7565b6001810190506122c0565b5050565b601f821115612323576122f4816121c3565b6122fd846121d8565b8101602085101561230c578190505b612320612318856121d8565b8301826122bf565b50505b505050565b600082821c905092915050565b600061234660001984600802612328565b1980831691505092915050565b600061235f8383612335565b9150826002028217905092915050565b612378826119ee565b67ffffffffffffffff81111561239157612390611c7f565b5b61239b8254611ff2565b6123a68282856122e2565b600060209050601f8311600181146123d957600084156123c7578287015190505b6123d18582612353565b865550612439565b601f1984166123e7866121c3565b60005b8281101561240f578489015182556001820191506020850194506020810190506123ea565b8683101561242c5784890151612428601f891682612335565b8355505b6001600288020188555050505b505050505050565b600081519050919050565b600082825260208201905092915050565b600061246882612441565b612472818561244c565b9350612482818560208601611a0a565b61248b81611a34565b840191505092915050565b60006080820190506124ab6000830187611b35565b6124b86020830186611b35565b6124c56040830185611c1e565b81810360608301526124d7818461245d565b905095945050505050565b6000815190506124f18161195f565b92915050565b60006020828403121561250d5761250c611929565b5b600061251b848285016124e2565b91505092915050565b60006040820190506125396000830185611b35565b6125466020830184611c1e565b9392505050565b7f4e487b7100000000000000000000000000000000000000000000000000000000600052601260045260246000fdfea2646970667358221220b1ac06c83f046e884f0c77519a6bb7782c7846f76dffddb73c07eeeba883ddc264736f6c63430008180033",
  "linkReferences": {},
  "deployedLinkReferences": {}
}